:100000000C9435010C945D010C945D010C945D0120
:100010000C9465030C945D010C945D010C945D01DE
:100020000C945D010C945D010C945D010C945D01D8
:100030000C945D010C945D010C945D010C945D01C8
:100040000C941F030C945D010C94ED020C94C702F8
:100050000C945D010C945D010C945D010C945D01A8
:100060000C945D010C945D01007800747270717BDA
:10007000007977757309600000000000007131009D
:1000800000007A736177320000637864653433006E
:100090000020766674723500006E626867793600FB
:1000A00000006D6A75373800002C6B696F303900BD
:1000B000002E2F6C3B702D00000027005B3D0000E0
:1000C00000000A5D005C0000000000000000080065
:1000D0000000000000000000007F443552551B4E18
:1000E0007A2B332D2A0000000000000000000000E1
:1000F0000000000000007E00000000000051210010
:1001000000005A53415740000043584445242300FF
:100110000000564654522500004E424847595E00A2
:1001200000004D4A55262A00003C4B494F29280023
:10013000003E3F4C3A505F00000022007B2B000045
:100140000000007D007C00000000000000000000B6
:10015000000000000000000000000025000000007A
:10016000002B232D2A0000000000000000000000EA
:10017000000000000000000000000000004000003F
:10018000000000000000000000000000000000006F
:10019000000000000000000000000000000000005F
:1001A00000000000007B5B0000000000007D5D009F
:1001B0000000000000005C000000000000000000E3
:1001C0000000007E00000000007C00000000000035
:1001D000000000000000000000000000000000001F
:1001E000000000000000000000000000000000000F
:1001F00000000000000000000000000000110000EE
:1002000000001A1301170000000318040500000085
:100210000020160614120000000E02080719000044
:1002200000000D0A1500000000000B090F0000007F
:100230000000000C00100000000000001B00000087
:100240000000001D001C0000000000000000000075
:10025000000000000000000000000000000000009E
:1002600000000000000000000A0611241FBECFEFAE
:10027000D8E0DEBFCDBF11E0A0E0B1E0EEE7FCE0EA
:1002800002C005900D92A835B107D9F722E0A8E584
:10029000B1E001C01D92A531B207E1F711E0C5E35D
:1002A000D1E004C02197FE010E943706C433D10774
:1002B000C9F70E945F040C943D060C940000AF92B5
:1002C000BF92CF92DF92EF92FF920F931F93CF9343
:1002D000DF936C017B018B01040F151FEB015E01A5
:1002E000AE18BF08C017D10759F06991D601ED913A
:1002F000FC910190F081E02DC6010995892B79F7D9
:10030000C501DF91CF911F910F91FF90EF90DF908A
:10031000CF90BF90AF900895FC01538D448D252F51
:1003200030E0842F90E0821B930B541710F0CF968F
:10033000089501970895FC01918D828D981761F0C1
:10034000A28DAE0FBF2FB11D5D968C91928D9F5FD8
:100350009F73928F90E008958FEF9FEF0895FC01B7
:10036000918D828D981731F0828DE80FF11D858D6A
:1003700090E008958FEF9FEF0895FC01918D228DFD
:10038000892F90E0805C9F4F821B91098F73992782
:10039000089588E791E00E94BD0121E0892B09F4CE
:1003A00020E0822F089580E090E0892B29F00E94C0
:1003B000C90181110C9400000895FC01A48DA80FBF
:1003C000B92FB11DA35ABF4F2C91848D90E0019697
:1003D0008F739927848FA689B7892C93A089B189B7
:1003E0008C91837080648C93938D848D981306C058
:1003F0000288F389E02D80818F7D80830895EF92BC
:10040000FF920F931F93CF93DF93EC0181E0888FCE
:100410009B8D8C8D98131AC0E889F989808185FF9E
:1004200015C09FB7F894EE89FF896083E889F98940
:1004300080818370806480839FBF81E090E0DF9142
:10044000CF911F910F91FF90EF900895F62E0B8D95
:1004500010E00F5F1F4F0F731127E02E8C8D8E1150
:100460000CC00FB607FCFACFE889F989808185FFB7
:10047000F5CFCE010E94DD01F1CFEB8DEC0FFD2F0A
:10048000F11DE35AFF4FF0829FB7F8940B8FEA8972
:10049000FB8980818062CFCFCF93DF93EC01888D81
:1004A0008823B9F0AA89BB89E889F9898C9185FDEF
:1004B00003C0808186FD0DC00FB607FCF7CF8C917D
:1004C00085FFF2CF808185FFEDCFCE010E94DD0157
:1004D000E9CFDF91CF9108958093760180936501F4
:1004E00091E09093000148E050E021E030E0682F77
:1004F00070E080FF02C02F5F3F4FCB01959587953D
:1005000041505109A1F7217020936401459A3D9A09
:100510003C9A449883E691E00197F1F781E080935B
:10052000630110926201109261014598449A3C98CF
:1005300023E631E080916301882321F0C90101970E
:10054000F1F7F8CF109263010895CF93C82F10925E
:1005500066018DEE0E946C0223E631E08091660117
:10056000811104C0C9010197F1F7F8CF8C2FCF9109
:100570000C946C02FC0101900020E9F73197AF0167
:10058000481B590BBC0188E791E00C945F011F9256
:100590000F920FB60F9211242F933F934F935F93B7
:1005A0006F937F938F939F93AF93BF93EF93FF933B
:1005B00088E791E00E94DD01FF91EF91BF91AF913B
:1005C0009F918F917F916F915F914F913F912F916B
:1005D0000F900FBE0F901F9018951F920F920FB69D
:1005E0000F9211242F938F939F93EF93FF93E0919A
:1005F0008801F09189018081E0918E01F0918F0155
:1006000082FD1BC09081809191018F5F8F7320913B
:100610009201821741F0E0919101F0E0E858FE4F1D
:10062000958F80939101FF91EF919F918F912F91E1
:100630000F900FBE0F901F9018958081F4CF1F92DE
:100640000F920FB60F9211242F933F938F939F9386
:10065000AF93BF9380916C0190916D01A0916E0159
:10066000B0916F0130916B0125E5230F2D3728F0F4
:1006700028ED230F0196A11DB11D20936B018093DE
:100680006C0190936D01A0936E01B0936F01809106
:10069000670190916801A0916901B0916A0101968A
:1006A000A11DB11D8093670190936801A09369011A
:1006B000B0936A01BF91AF919F918F913F912F911C
:1006C0000F900FBE0F901F9018951F920F920FB6AC
:1006D0000F9211240F931F932F933F934F935F9388
:1006E0006F937F938F939F93AF93BF938091630199
:1006F0008823C9F080916101909162010C979CF46C
:10070000349996C0BF91AF919F918F917F916F91D6
:100710005F914F913F912F911F910F910F900FBEBD
:100720000F901F901895349BEDCF809160018B3016
:1007300048F73FB7F8948091670190916801A091C4
:100740006901B0916A0126B5A89B05C02F3F19F039
:100750000196A11DB11D3FBFBA2FA92F982F882741
:10076000820F911DA11DB11D880F991FAA1FBB1FCC
:1007700040915C0150915D0160915E0170915F015B
:100780008C019D01041B150B260B370BB901A80129
:10079000493C51056105710510F01092600180938C
:1007A0005C0190935D01A0935E01B0935F01809125
:1007B0005A0190915B019695879590935B01809388
:1007C0005A01359B05C0946090935B0180935A0158
:1007D000809160018F5F809360018B3009F092CF30
:1007E00080915A0190915B01969587958093750150
:1007F00010926001809175018A3F09F458C08E3FC4
:1008000009F080CF809158019091590103970CF025
:1008100051C08091580190915901019690935901CE
:100820008093580181E080937701109275016ACF1F
:100830008091610190916201893091057CF4813051
:100840009105DCF4892B61F1809161019091620145
:100850000196909362018093610154CF8A30910593
:1008600019F1D4F00B9781F786B185FB882780F9C1
:100870008093000110926301E7CF8091650180FDB4
:1008800009C045988091650190E095958795809382
:100890006501DACF459AF6CF8091640180FD02C0F0
:1008A0004598D2CF459AD0CF459A3D98CDCF81E09B
:1008B000809366011092590110925801B6CFCF93E0
:1008C000DF93CDB7DEB728970FB6F894DEBF0FBE23
:1008D000CDBF789484B5826084BD84B5816084BDC9
:1008E00085B5826085BD85B5816085BD80916E00CE
:1008F000816080936E0010928100809181008260FF
:10090000809381008091810081608093810080913B
:1009100080008160809380008091B100846080932A
:10092000B1008091B00081608093B00080917A0026
:10093000846080937A0080917A00826080937A004C
:1009400080917A00816080937A0080917A0080683B
:1009500080937A001092C10017B88FE088B987E0C1
:1009600084B915B88CEF8AB91BB8F89480916800E7
:1009700082608093680080916C00806180936C003D
:100980007894E0918801F091890182E08083E09180
:100990008401F09185011082E0918601F091870138
:1009A0008CE0808310929001E0918C01F0918D0198
:1009B0008EE08083E0918A01F0918B0180818061DB
:1009C0008083E0918A01F0918B018081886080832F
:1009D000E0918A01F0918B01808180688083E091B1
:1009E0008A01F0918B0180818F7D808388E0E1E036
:1009F000F1E0DE01119601900D928A95E1F7809168
:100A0000C00082608093C00086B1837090E0880F40
:100A1000991F21E030E02C0F3D1F820F931FFC0136
:100A2000808191819093C5008093C400FF24F3944A
:100A300000E010E0EE24E39488E791E00E94BD011D
:100A4000892BA9F088E791E00E949B019C01880F07
:100A5000880F8BB995B19095947086E03595279560
:100A60008A95E1F723703327892F822B85B98091EE
:100A70007701882351F0109277018BE191E00E9479
:100A8000BA02809176010E946C02809175018823E0
:100A900009F46CC0E091750110927501E43109F41C
:100AA00077C008F044C0E13109F459C0E23109F4DB
:100AB00069C080917401811157C0EC3609F494C06B
:100AC00008F07BC0EA3509F498C008F06CC082E5F4
:100AD00091E0ED3009F46EC08091720161E0811106
:100AE0000BC08091730162E0811106C08091710199
:100AF00063E0811101C060E0F0E86F9FB001112454
:100B0000EF77E60FF72FF11DE859FF4F64918091C1
:100B10007001882309F47AC08FE9860F8A3108F0C2
:100B20006FC0605288E791E00E94FF011FC0E93565
:100B300049F1E03F99F1E83509F0BBCF80917401AC
:100B40008823A1F0809170018F258093700180919E
:100B50007001882331F184E00E94A50205C08091D4
:100B600074018F2580937301109274010115110592
:100B700009F462CF0E94C901882309F45DCF0E9465
:100B800000005ACF809174018F2580937201ECCFC1
:100B9000809174018F2580937101E6CFE0927401FA
:100BA000E5CF80E0D9CFE93611F18AE391E0EB3669
:100BB00009F092CF0E94BA02D9CFE53779F038F424
:100BC000E23779F086E391E0E437A1F385CFEA37A5
:100BD00089F088E491E0ED3769F37ECF8EE291E011
:100BE000E9CF82E391E0E6CF8EE391E0E3CF83E4C7
:100BF00091E0E0CF8DE491E0DDCF85E591E0DACFC3
:100C00008FEB860F8A3110F4605E8CCF662309F477
:100C1000ADCF88CFE8E7F1E01382128288EE93E04F
:100C2000A0E0B0E084839583A683B7838DE091E054
:100C30009183808385EC90E09587848784EC90E0B5
:100C40009787868780EC90E0918B808B81EC90E099
:100C5000938B828B82EC90E0958B848B86EC90E07A
:100C6000978B868B118E128E138E148E0895EE0F35
:0E0C7000FF1F0590F491E02D0994F894FFCF3A
:100C7E000137014D003300190000000000FF015F35
:100C8E00018C014C02BD019B01AF012052657365C1
:100C9E006E64206C61737420636D642E20001B5B88
:100CAE0041001B5B42001B5B43001B5B44001B5B54
:100CBE00317E001B5B347E001B5B357E001B5B367A
:080CCE007E002020000D000053
:00000001FF
