:100000000C9460010C9488010C9488010C94880174
:100010000C94C0030C9488010C9488010C94880102
:100020000C9488010C9488010C9488010C9488012C
:100030000C9488010C9488010C9488010C9488011C
:100040000C947A030C9488010C9448030C942203BA
:100050000C9488010C9488010C9488010C948801FC
:100060000C9488010C9488011B5B32343B3048426D
:10007000616666612D5465726D696E616C207631C2
:100080002E321B5B32353B30484261736564206F12
:100090006E204D696E696D616C2D5465726D696E6F
:1000A000616C2062792048657274696E6720323015
:1000B00032311B5B303B3048000078007472707145
:1000C0007B007977757309600000000000007131D2
:1000D0000000007A7361773200006378646534331E
:1000E000000020766674723500006E6268677936AB
:1000F0000000006D6A75373800002C6B696F30396D
:1001000000002E2F6C3B702D00000027005B3D008F
:100110000000000A5D005C0000005C0000000008B8
:100120000000000000002E0000307F443552551BB7
:100130004E7A2B332D2A0000000000000000000042
:10014000000000000000007E0000000000005121BF
:100150000000005A534157400000435844452423AF
:10016000000000564654522500004E424847595E52
:100170000000004D4A55262A00003C4B494F2928D3
:1001800000003E3F4C3A505F00000022007B2B00F5
:10019000000000007D007C0000007C0000000000EA
:1001A000000000000000000000000000250000002A
:1001B00000002B232D2A000000000000000000009A
:1001C00000000000000000000000000000004000EF
:1001D000000000000000000000000000000000001F
:1001E000000000000000000000000000000000000F
:1001F0000000000000007B5B0000000000007D5D4F
:10020000000000000000005C000000000000000092
:10021000000000007E00000000007C0000000000E4
:1002200000000000000000000000000000000000CE
:1002300000000000000000000000000000000000BE
:10024000000000000000000000000000000011009D
:100250000000001A13011700000003180405000035
:10026000000020160614120000000E0208071900F4
:100270000000000D0A1500000000000B090F00002F
:10028000000000000C00100000000000001B000037
:10029000000000001D001C0000001C000000000009
:1002A000000000000000000000000000000000004E
:1002B0000000000000000000001B5B324A002B071A
:1002C00011241FBECFEFD8E0DEBFCDBF11E0A0E00C
:1002D000B1E0E0ECFEE002C005900D92A836B10757
:1002E000D9F722E0A8E6B1E001C01D92A832B2071A
:1002F000E1F711E0C0E6D1E004C02197FE010E94C1
:100300005807CF35D107C9F70E94AF040C945E0798
:100310000C940000AF92BF92CF92DF92EF92FF92C7
:100320000F931F93CF93DF936C017B018B01040F1D
:10033000151FEB015E01AE18BF08C017D10759F0B9
:100340006991D601ED91FC910190F081E02DC601FB
:100350000995892B79F7C501DF91CF911F910F91F5
:10036000FF90EF90DF90CF90BF90AF900895FC0189
:10037000538D448D252F30E0842F90E0821B930B0A
:10038000541710F0CF96089501970895FC01918DB0
:10039000828D981761F0A28DAE0FBF2FB11D5D96B3
:1003A0008C91928D9F5F9F73928F90E008958FEF55
:1003B0009FEF0895FC01918D828D981731F0828D09
:1003C000E80FF11D858D90E008958FEF9FEF089560
:1003D000FC01918D228D892F90E0805C9F4F821BC4
:1003E00091098F73992708958BE891E00E94E801A5
:1003F00021E0892B09F420E0822F089580E090E02D
:10040000892B29F00E94F40181110C9400000895B9
:10041000FC01A48DA80FB92FB11DA35ABF4F2C9179
:10042000848D90E001968F739927848FA689B78970
:100430002C93A089B1898C91837080648C93938D67
:10044000848D981306C00288F389E02D80818F7D0A
:1004500080830895EF92FF920F931F93CF93DF93C2
:10046000EC0181E0888F9B8D8C8D98131AC0E889F0
:10047000F989808185FF15C09FB7F894EE89FF89BF
:100480006083E889F98980818370806480839FBF5D
:1004900081E090E0DF91CF911F910F91FF90EF905D
:1004A0000895F62E0B8D10E00F5F1F4F0F7311276D
:1004B000E02E8C8D8E110CC00FB607FCFACFE889A8
:1004C000F989808185FFF5CFCE010E940802F1CF26
:1004D000EB8DEC0FFD2FF11DE35AFF4FF0829FB71C
:1004E000F8940B8FEA89FB8980818062CFCFCF930C
:1004F000DF93EC01888D8823B9F0AA89BB89E8894C
:10050000F9898C9185FD03C0808186FD0DC00FB6F1
:1005100007FCF7CF8C9185FFF2CF808185FFEDCF6F
:10052000CE010E940802E9CFDF91CF9108953FB735
:10053000F8948091740190917501A0917601B09129
:10054000770126B5A89B05C02F3F19F00196A11D84
:10055000B11D3FBFBA2FA92F982F8827BC01CD010D
:10056000620F711D811D911D660F771F881F991FD6
:1005700008958093870180937E0191E0909300011C
:1005800048E050E021E030E0682F70E080FF02C0DA
:100590002F5F3F4FCB019595879541505109A1F7AA
:1005A000217020937D01459A3D9A3C9A449883E6B8
:1005B00091E00197F1F781E080937F0110927B0138
:1005C00010927A014598449A3C9823E631E0809154
:1005D0007F01882321F0C9010197F1F7F8CF10922C
:1005E0007F010895CF93C82F10927C018DEE0E9459
:1005F000B90223E631E080917C01811104C0C90178
:100600000197F1F7F8CF8C2FCF910C94B902982F66
:10061000990F990F9BB995B1909594708295869595
:1006200086958370892B85B90895FC01019000207F
:10063000E9F73197AF01481B590BBC018BE891E0FA
:100640000C948A011F920F920FB60F9211242F93D0
:100650003F934F935F936F937F938F939F93AF934A
:10066000BF93EF93FF938BE891E00E940802FF9104
:10067000EF91BF91AF919F918F917F916F915F911A
:100680004F913F912F910F900FBE0F901F90189593
:100690001F920F920FB60F9211242F938F939F9357
:1006A000EF93FF93E0919B01F0919C018081E09199
:1006B000A101F091A20182FD1BC090818091A40153
:1006C0008F5F8F732091A501821741F0E091A40103
:1006D000F0E0E557FE4F958F8093A401FF91EF91D5
:1006E0009F918F912F910F900FBE0F901F90189593
:1006F0008081F4CF1F920F920FB60F9211242F9387
:100700003F938F939F93AF93BF938091700190918C
:100710007101A0917201B091730130916F0125E5D3
:10072000230F2D3728F028ED230F0196A11DB11DB1
:1007300020936F018093700190937101A0937201D7
:10074000B09373018091740190917501A09176012D
:10075000B09177010196A11DB11D80937401909312
:100760007501A0937601B0937701BF91AF919F91EE
:100770008F913F912F910F900FBE0F901F90189562
:100780001F920F920FB60F921124CF92DF92EF9229
:10079000FF920F931F932F933F934F935F936F930A
:1007A0007F938F939F93AF93BF93EF93FF9380912A
:1007B0007F01882399F080917A0190917B010C97B9
:1007C0006CF4349924C080917A0190917B010A974E
:1007D00039F4349905C0459A3D9825C0349952C0E2
:1007E000FF91EF91BF91AF919F918F917F916F9109
:1007F0005F914F913F912F911F910F91FF90EF903B
:10080000DF90CF900F900FBE0F901F9018958091A2
:100810007A0190917B01893091057CF481309105BA
:10082000D4F4892B59F180917A0190917B01019642
:1008300090937B0180937A01D3CF89309105D1F0D9
:100840000B9789F786B185FB882780F98093000193
:1008500010927F01E8CF80917E0180FD09C045980C
:1008600080917E0190E09595879580937E01DBCF06
:10087000459AF6CF80917D0180FD02C04598D3CF87
:10088000459AD1CF80916E018B3008F0A9CF0E949C
:10089000970200916A0110916B0120916C013091D7
:1008A0006D016B017C01C01AD10AE20AF30A9701BB
:1008B0008601093C11052105310510F010926E01E9
:1008C00060936A0170936B0180936C0190936D014A
:1008D000809168019091690196958795909369013F
:1008E00080936801359B05C0946090936901809363
:1008F000680180916E018F5F80936E018B3009F0EB
:100900006FCF80916801909169019695879580934A
:10091000860110926E01809186018A3FC1F08E3F60
:1009200009F05ECF8091780190917901039794F45A
:10093000809178019091790101969093790180934B
:10094000780181E0809388011092860149CF81E08F
:1009500080937C011092790110927801F5CFCF93AA
:10096000DF93CDB7DEB728970FB6F894DEBF0FBE82
:10097000CDBF789484B5826084BD84B5816084BD28
:1009800085B5826085BD85B5816085BD80916E002D
:10099000816080936E00109281008091810082605E
:1009A000809381008091810081608093810080919B
:1009B00080008160809380008091B100846080938A
:1009C000B1008091B00081608093B00080917A0086
:1009D000846080937A0080917A00826080937A00AC
:1009E00080917A00816080937A0080917A0080689B
:1009F00080937A001092C10017B88FE088B987E021
:100A000084B915B88CEF8AB91BB8F8948091680046
:100A100082608093680080916C00806180936C009C
:100A20007894E0919B01F0919C0182E08083E091B9
:100A30009701F09198011082E0919901F0919A014B
:100A40008CE080831092A301E0919F01F091A001BE
:100A50008EE08083E0919D01F0919E018081806114
:100A60008083E0919D01F0919E0180818860808368
:100A7000E0919D01F0919E01808180688083E091EA
:100A80009D01F0919E0180818F7D808388E0E2E06E
:100A9000F1E0DE01119601900D928A95E1F78091C7
:100AA000C00082608093C00086B1837090E0880FA0
:100AB000991F21E030E02C0F3D1F820F931FFC0196
:100AC000808191819093C5008093C4000E94970219
:100AD0004B015C0138EEC32E33E0D32EE12CF12C18
:100AE0000E949702681979098A099B09683E734038
:100AF00081059105A8F3F1E0CF1AD108E108F108CA
:100B000028EE820E23E0921EA11CB11CC114D10458
:100B1000E104F10429F710928A011092890183EB14
:100B2000E82E8BE0F82E0091890110918A010035A2
:100B3000110584F4C7010197F1F7F801E859FF4F57
:100B400084910E9407030F5F1F4F10938A01009347
:100B50008901E9CF8FEF0E94B902109286011092AD
:100B600081011092800110927F0110927E0181E03C
:100B70008093000110927D0110927C0110927B0104
:100B800010927A01109287011092880110927901D7
:100B90001092780103EB1BE08BE891E00E94E801E2
:100BA000892B61F180910101882311F110928A0152
:100BB00010928901E0908901F0908A0184E0E816A2
:100BC000F1048CF4C8010197F1F7F701E754FD4FE8
:100BD00084910E9407039FEFE91AF90AF0928A01B3
:100BE000E0928901E7CFC8010197F1F71092010166
:100BF0008BE891E00E94C6010E9407038091880162
:100C0000882351F01092880180E591E00E9415033D
:100C1000809187010E94B902809186018823B1F0FA
:100C20008091860110928601883599F1E0F4823135
:100C300001F190918501843119F1813109F053C09E
:100C400081E09827909384011092850180E090E0E4
:100C5000892B09F4A1CF0E94F401882309F49CCFC9
:100C60000E94000099CF873759F1803F71F0893594
:100C7000D1F58091850191E0892780938301E4CFAC
:100C800081E0982790938201DFCF81E080938501F6
:100C9000DDCF809185018823C9F28091810191E0A7
:100CA0008927809381012091810180918001E4E076
:100CB0002E9F90011124880F822B0E94F202C4CF34
:100CC00080918501882311F28091800191E089272C
:100CD000809380012091810180918001F4E02F9F19
:100CE00090011124E8CF909185019111ADCF8C3600
:100CF00009F481C008F048C08A3509F4A0C0C0F5E5
:100D00008D3009F499C09091830161E091110BC07D
:100D10009091840162E0911106C09091820163E09C
:100D2000911101C060E020E8629FB0011124E82F1A
:100D3000EF77E60FF72FF11DE754FF4F6491909185
:100D40008101992331F09FE9960F9A3108F07AC01A
:100D5000605290918001992319F0813709F479C08C
:100D6000662309F473CF8BE891E00E942A026ECFCC
:100D7000893609F44AC08B3631F6809180018111A1
:100D800037C080E391E021C08537C9F060F4823735
:100D900011F1843709F0B7CF80918001811125C00E
:100DA0008AE291E012C08A37E9F18D3709F0ABCFC2
:100DB00080918001811133C084E491E006C080916C
:100DC0008001811105C08EE191E00E9415033ECFA4
:100DD0008CE191E0FACF80918001811103C084E21F
:100DE00091E0F3CF82E291E0F0CF88E291E0EDCFA5
:100DF0008EE291E0EACF80918001811103C086E309
:100E000091E0E3CF84E391E0E0CF80918001811114
:100E100003C08DE391E0D9CF8BE391E0D6CF82E49C
:100E200091E0D3CF80918001811103C08BE491E0E8
:100E3000CCCF89E491E0C9CF83E691E0C6CF86E6C6
:100E400091E0C3CF9FEB960F9A3108F082CF605E9E
:100E500080CF6EE288CFEBE8F1E01382128288EE59
:100E600093E0A0E0B0E084839583A683B7838EE00F
:100E700091E09183808385EC90E09587848784EC72
:100E800090E09787868780EC90E0918B808B81EC57
:100E900090E0938B828B82EC90E0958B848B86EC38
:100EA00090E0978B868B118E128E138E148E089580
:100EB000EE0FFF1F0590F491E02D0994F894FFCFF9
:100EC000010137014D0033001900000000002A0223
:100ED0008A01B7017702E801C601DA0138001B5B1D
:100EE000410032001B5B420036001B5B43003400B4
:100EF0001B5B440037001B5B317E0031001B5B3401
:100F00007E0039001B5B357E0033001B5B367E00A4
:100F100020526573656E64206C61737420636D6428
:080F20002E20002020000D002E
:00000001FF
