:020000040000FA
:100000000C9435010C945D010C945D010C945D0120
:100010000C9417030C945D010C945D010C945D012C
:100020000C945D010C945D010C945D010C945D01D8
:100030000C945D010C945D010C945D010C945D01C8
:100040000C94D1020C945D010C949F020C947902E3
:100050000C945D010C945D010C945D010C945D01A8
:100060000C945D010C945D01007800747270717BDA
:10007000007977757309600000000000007131009D
:1000800000007A736177320000637864653433006E
:100090000020766674723500006E626867793600FB
:1000A00000006D6A75373800002C6B696F303900BD
:1000B000002E2F6C3B702D00000027005B3D0000E0
:1000C00000000A5D005C0000000000000000080065
:1000D0000000000000000000007F443552551B4E18
:1000E0007A2B332D2A0000000000000000000000E1
:1000F0000000000000007E00000000000051210010
:1001000000005A53415740000043584445242300FF
:100110000000564654522500004E424847595E00A2
:1001200000004D4A55262A00003C4B494F29280023
:10013000003E3F4C3A505F00000022007B2B000045
:100140000000007D007C00000000000000000000B6
:10015000000000000000000000000025000000007A
:10016000002B232D2A0000000000000000000000EA
:10017000000000000000000000000000004000003F
:10018000000000000000000000000000000000006F
:10019000000000000000000000000000000000005F
:1001A00000000000007B5B0000000000007D5D009F
:1001B0000000000000005C000000000000000000E3
:1001C0000000007E00000000007C00000000000035
:1001D000000000000000000000000000000000001F
:1001E000000000000000000000000000000000000F
:1001F00000000000000000000000000000110000EE
:1002000000001A1301170000000318040500000085
:100210000020160614120000000E02080719000044
:1002200000000D0A1500000000000B090F0000007F
:100230000000000C00100000000000001B00000087
:100240000000001D001C0000000000000000000075
:10025000000000000000000000000000000000009E
:100260000000000000000000140511241FBECFEFA5
:10027000D8E0DEBFCDBF11E0A0E0B1E0E2E9FAE0F6
:1002800002C005900D92A434B107D9F721E0A4E48F
:10029000B1E001C01D92A63FB207E1F711E0C5E34E
:1002A000D1E004C02197FE010E944105C433D1076B
:1002B000C9F70E94A0030C9447050C940000AF926C
:1002C000BF92CF92DF92EF92FF920F931F93CF9343
:1002D000DF936C017B018B01040F151FEB015E01A5
:1002E000AE18BF08C017D10759F06991D601ED913A
:1002F000FC910190F081E02DC6010995892B79F7D9
:10030000C501DF91CF911F910F91FF90EF90DF908A
:10031000CF90BF90AF900895FC01538D448D252F51
:1003200030E0842F90E0821B930B541710F0CF968F
:10033000089501970895FC01918D828D981761F0C1
:10034000A28DAE0FBF2FB11D5D968C91928D9F5FD8
:100350009F73928F90E008958FEF9FEF0895FC01B7
:10036000918D828D981731F0828DE80FF11D858D6A
:1003700090E008958FEF9FEF0895FC01918D228DFD
:10038000892F90E0805C9F4F821B91098F73992782
:10039000089589E591E00E94BD0121E0892B09F4CF
:1003A00020E0822F089580E090E0892B29F00E94C0
:1003B000C90181110C9400000895FC01A48DA80FBF
:1003C000B92FB11DA35ABF4F2C91848D90E0019697
:1003D0008F739927848FA689B7892C93A089B189B7
:1003E0008C91837080648C93938D848D981306C058
:1003F0000288F389E02D80818F7D80830895EF92BC
:10040000FF920F931F93CF93DF93EC0181E0888FCE
:100410009B8D8C8D98131AC0E889F989808185FF9E
:1004200015C09FB7F894EE89FF896083E889F98940
:1004300080818370806480839FBF81E090E0DF9142
:10044000CF911F910F91FF90EF900895F62E0B8D95
:1004500010E00F5F1F4F0F731127E02E8C8D8E1150
:100460000CC00FB607FCFACFE889F989808185FFB7
:10047000F5CFCE010E94DD01F1CFEB8DEC0FFD2F0A
:10048000F11DE35AFF4FF0829FB7F8940B8FEA8972
:10049000FB8980818062CFCFCF93DF93EC01888D81
:1004A0008823B9F0AA89BB89E889F9898C9185FDEF
:1004B00003C0808186FD0DC00FB607FCF7CF8C917D
:1004C00085FFF2CF808185FFEDCFCE010E94DD0157
:1004D000E9CFDF91CF910895FC0101900020E9F769
:1004E0003197AF01481B590BBC0189E591E00C9491
:1004F0005F011F920F920FB60F9211242F933F931B
:100500004F935F936F937F938F939F93AF93BF931B
:10051000EF93FF9389E591E00E94DD01FF91EF9158
:10052000BF91AF919F918F917F916F915F914F910B
:100530003F912F910F900FBE0F901F9018951F9213
:100540000F920FB60F9211242F938F939F93EF93D7
:10055000FF93E0916901F0916A018081E0916F0160
:10056000F091700182FD1BC09081809172018F5FBC
:100570008F7320917301821741F0E0917201F0E0D6
:10058000E75AFE4F958F80937201FF91EF919F91F3
:100590008F912F910F900FBE0F901F901895808113
:1005A000F4CF1F920F920FB60F9211242F933F9307
:1005B0008F939F93AF93BF9380915001909151017E
:1005C000A0915201B091530130914F0125E5230FC5
:1005D0002D3728F028ED230F0196A11DB11D209382
:1005E0004F018093500190935101A0935201B09319
:1005F000530180914B0190914C01A0914D01B0911C
:100600004E010196A11DB11D80934B0190934C01A9
:10061000A0934D01B0934E01BF91AF919F918F91E7
:100620003F912F910F900FBE0F901F9018951F9222
:100630000F920FB60F9211240F931F932F933F9396
:100640004F935F936F937F938F939F93AF93BF93DA
:10065000349B65C080914A018B3008F060C03FB781
:10066000F89480914B0190914C01A0914D01B09173
:100670004E0126B5A89B05C02F3F19F00196A11D7C
:10068000B11D3FBFBA2FA92F982F8827820F911D28
:10069000A11DB11D880F991FAA1FBB1F40914601C4
:1006A0005091470160914801709149018C019D0171
:1006B000041B150B260B370BB901A801493C51054A
:1006C0006105710510F010924A01809346019093E4
:1006D0004701A0934801B093490180914401909152
:1006E0004501969587959093450180934401359BEC
:1006F00005C09460909345018093440180914A0124
:100700008F5F80934A018B3051F480914401909126
:100710004501969587958093580110924A01BF91A3
:10072000AF919F918F917F916F915F914F913F9189
:100730002F911F910F910F900FBE0F901F90189542
:10074000CF93DF93CDB7DEB728970FB6F894DEBF0F
:100750000FBECDBF789484B5826084BD84B58160BE
:1007600084BD85B5826085BD85B5816085BD80917C
:100770006E00816080936E001092810080918100F4
:1007800082608093810080918100816080938100EC
:10079000809180008160809380008091B1008460AE
:1007A0008093B1008091B00081608093B00080910F
:1007B0007A00846080937A0080917A0082608093CE
:1007C0007A0080917A00816080937A0080917A002B
:1007D000806880937A001092C10017B88FE088B9C2
:1007E00087E084B915B88CEF8AB91BB8F89480916A
:1007F000680082608093680080916C0080618093C3
:100800006C007894E0916901F0916A0182E0808344
:10081000E0916501F09166011082E0916701F0912D
:1008200068018CE0808310927101E0916D01F0917C
:100830006E018EE08083E0916B01F0916C0180810C
:1008400080618083E0916B01F0916C018081886010
:100850008083E0916B01F0916C01808180688083DE
:10086000E0916B01F0916C0180818F7D808388E045
:10087000E0E0F1E0DE01119601900D928A95E1F73A
:100880008091C00082608093C00086B1837090E048
:10089000880F991F21E030E02C0F3D1F820F931F1E
:1008A000FC01808191819093C5008093C400FF2456
:1008B000F39400E010E0EE24E39489E591E00E94D7
:1008C000BD01892BA9F089E591E00E949B019C0163
:1008D000880F880F8BB995B19095947086E0359507
:1008E00027958A95E1F723703327892F822B85B9C5
:1008F00080915801882309F452C0E0915801109268
:100900005801E43109F45DC008F03BC0E13109F45D
:100910003FC0E23109F44FC08091570181113DC0C1
:10092000EC3609F475C008F05CC0EA3509F479C00A
:1009300008F04DC08EE391E0ED3009F44FC0809196
:10094000550161E081110BC08091560162E0811177
:1009500006C08091540163E0811101C060E0F0E8BD
:100960006F9FB0011124EF77E60FF72FF11DE859C3
:10097000FF4F6491662399F089E591E00E94FF01A1
:100980000EC0E935C1F0E03F39F6E092570107C0EB
:10099000809157018F2580935601109257010115C0
:1009A000110509F48ACF0E94C901882309F485CF73
:1009B0000E94000082CF809157018F2580935501BE
:1009C000ECCF809157018F2580935401E6CFE93613
:1009D00011F186E291E0EB3609F0B1CF0E946C0292
:1009E000DECFE53779F038F4E23779F082E291E052
:1009F000E437A1F3A4CFEA3789F084E391E0ED373F
:100A000069F39DCF8AE191E0E9CF8EE191E0E6CFF5
:100A10008AE291E0E3CF8FE291E0E0CF89E391E0D9
:100A2000DDCF81E491E0DACFE9E5F1E013821282D3
:100A300088EE93E0A0E0B0E084839583A683B7833B
:100A40008CE091E09183808385EC90E095878487AA
:100A500084EC90E09787868780EC90E0918B808B88
:100A600081EC90E0938B828B82EC90E0958B848B71
:100A700086EC90E0978B868B118E128E138E148EDF
:100A80000895EE0FFF1F0590F491E02D0994F8945E
:100A9000FFCF37014D003300190000000000FF01B7
:100AA0005F018C014C02BD019B01AF011B5B41004A
:100AB0001B5B42001B5B43001B5B44001B5B317EE6
:100AC000001B5B347E001B5B357E001B5B367E00AB
:060AD0002020000D0000D3
:107E0000112484B714BE81FFEFD095E090938100D8
:107E100082E08093C00088E18093C10086E0809377
:107E2000C2009093C4008EE0C9D0259A86E028E471
:107E30003AEF91E0309385002093840096BBB09B8D
:107E4000FECF1D9AA8958150A9F7CC24DD24882463
:107E50008394B5E0AB2EA1E19A2EF3E0BF2EA2D021
:107E6000813461F49FD0082FAFD0023811F001386F
:107E700011F484E001C083E08DD089C0823411F414
:107E800084E103C0853419F485E0A6D080C085352F
:107E900079F488D0E82EFF2485D0082F10E0102F29
:107EA00000270E291F29000F111F8ED068016FC0F7
:107EB000863521F484E090D080E0DECF843609F06E
:107EC00040C070D06FD0082F6DD080E0C81680E71A
:107ED000D80618F4F601B7BEE895C0E0D1E062D04C
:107EE00089930C17E1F7F0E0CF16F0E7DF0618F002
:107EF000F601B7BEE89568D007B600FCFDCFA60135
:107F0000A0E0B1E02C9130E011968C91119790E0B7
:107F1000982F8827822B932B1296FA010C0187BE8B
:107F2000E89511244E5F5F4FF1E0A038BF0751F78D
:107F3000F601A7BEE89507B600FCFDCF97BEE89511
:107F400026C08437B1F42ED02DD0F82E2BD03CD0C3
:107F5000F601EF2C8F010F5F1F4F84911BD0EA9425
:107F6000F801C1F70894C11CD11CFA94CF0CD11CA4
:107F70000EC0853739F428D08EE10CD085E90AD0BF
:107F80008FE07ACF813511F488E018D01DD080E1E0
:107F900001D065CF982F8091C00085FFFCCF9093D2
:107FA000C60008958091C00087FFFCCF8091C0007B
:107FB00084FD01C0A8958091C6000895E0E6F0E038
:107FC00098E1908380830895EDDF803219F088E096
:107FD000F5DFFFCF84E1DECF1F93182FE3DF1150D1
:107FE000E9F7F2DF1F91089580E0E8DFEE27FF2731
:027FF0000994F2
:027FFE00040479
:00000001FF
