:020000040000FA
:100000000C9460010C9488010C9488010C94880174
:100010000C94C0030C9488010C9488010C94880102
:100020000C9488010C9488010C9488010C9488012C
:100030000C9488010C9488010C9488010C9488011C
:100040000C947A030C9488010C9448030C942203BA
:100050000C9488010C9488010C9488010C948801FC
:100060000C9488010C9488011B5B32343B3048426D
:10007000616666612D5465726D696E616C207631C2
:100080002E321B5B32353B30484261736564206F12
:100090006E204D696E696D616C2D5465726D696E6F
:1000A000616C2062792048657274696E6720323015
:1000B00032311B5B303B3048000078007472707145
:1000C0007B007977757309600000000000007131D2
:1000D0000000007A7361773200006378646534331E
:1000E000000020766674723500006E6268677936AB
:1000F0000000006D6A75373800002C6B696F30396D
:1001000000002E2F6C3B702D00000027005B3D008F
:100110000000000A5D005C00000000000000000814
:10012000000000000000000000007F443552551B15
:100130004E7A2B332D2A0000000000000000000042
:10014000000000000000007E0000000000005121BF
:100150000000005A534157400000435844452423AF
:10016000000000564654522500004E424847595E52
:100170000000004D4A55262A00003C4B494F2928D3
:1001800000003E3F4C3A505F00000022007B2B00F5
:10019000000000007D007C00000000000000000066
:1001A000000000000000000000000000250000002A
:1001B00000002B232D2A000000000000000000009A
:1001C00000000000000000000000000000004000EF
:1001D000000000000000000000000000000000001F
:1001E000000000000000000000000000000000000F
:1001F0000000000000007B5B0000000000007D5D4F
:10020000000000000000005C000000000000000092
:10021000000000007E00000000007C0000000000E4
:1002200000000000000000000000000000000000CE
:1002300000000000000000000000000000000000BE
:10024000000000000000000000000000000011009D
:100250000000001A13011700000003180405000035
:10026000000020160614120000000E0208071900F4
:100270000000000D0A1500000000000B090F00002F
:10028000000000000C00100000000000001B000037
:10029000000000001D001C00000000000000000025
:1002A000000000000000000000000000000000004E
:1002B0000000000000000000001B5B324A00B30693
:1002C00011241FBECFEFD8E0DEBFCDBF11E0A0E00C
:1002D000B1E0E0EDFDE002C005900D92A835B10758
:1002E000D9F722E0A8E5B1E001C01D92A731B2071D
:1002F000E1F711E0C0E6D1E004C02197FE010E94C1
:10030000E006CF35D107C9F70E94A9040C94E60690
:100310000C940000AF92BF92CF92DF92EF92FF92C7
:100320000F931F93CF93DF936C017B018B01040F1D
:10033000151FEB015E01AE18BF08C017D10759F0B9
:100340006991D601ED91FC910190F081E02DC601FB
:100350000995892B79F7C501DF91CF911F910F91F5
:10036000FF90EF90DF90CF90BF90AF900895FC0189
:10037000538D448D252F30E0842F90E0821B930B0A
:10038000541710F0CF96089501970895FC01918DB0
:10039000828D981761F0A28DAE0FBF2FB11D5D96B3
:1003A0008C91928D9F5F9F73928F90E008958FEF55
:1003B0009FEF0895FC01918D828D981731F0828D09
:1003C000E80FF11D858D90E008958FEF9FEF089560
:1003D000FC01918D228D892F90E0805C9F4F821BC4
:1003E00091098F73992708958AE791E00E94E801A7
:1003F00021E0892B09F420E0822F089580E090E02D
:10040000892B29F00E94F40181110C9400000895B9
:10041000FC01A48DA80FB92FB11DA35ABF4F2C9179
:10042000848D90E001968F739927848FA689B78970
:100430002C93A089B1898C91837080648C93938D67
:10044000848D981306C00288F389E02D80818F7D0A
:1004500080830895EF92FF920F931F93CF93DF93C2
:10046000EC0181E0888F9B8D8C8D98131AC0E889F0
:10047000F989808185FF15C09FB7F894EE89FF89BF
:100480006083E889F98980818370806480839FBF5D
:1004900081E090E0DF91CF911F910F91FF90EF905D
:1004A0000895F62E0B8D10E00F5F1F4F0F7311276D
:1004B000E02E8C8D8E110CC00FB607FCFACFE889A8
:1004C000F989808185FFF5CFCE010E940802F1CF26
:1004D000EB8DEC0FFD2FF11DE35AFF4FF0829FB71C
:1004E000F8940B8FEA89FB8980818062CFCFCF930C
:1004F000DF93EC01888D8823B9F0AA89BB89E8894C
:10050000F9898C9185FD03C0808186FD0DC00FB6F1
:1005100007FCF7CF8C9185FFF2CF808185FFEDCF6F
:10052000CE010E940802E9CFDF91CF9108953FB735
:10053000F89480916C0190916D01A0916E01B09141
:100540006F0126B5A89B05C02F3F19F00196A11D8C
:10055000B11D3FBFBA2FA92F982F8827BC01CD010D
:10056000620F711D811D911D660F771F881F991FD6
:100570000895809376018093650191E09093000146
:1005800048E050E021E030E0682F70E080FF02C0DA
:100590002F5F3F4FCB019595879541505109A1F7AA
:1005A000217020936401459A3D9A3C9A449883E6D1
:1005B00091E00197F1F781E080936301109262016D
:1005C000109261014598449A3C9823E631E080916D
:1005D0006301882321F0C9010197F1F7F8CF109248
:1005E00063010895CF93C82F109266018DEE0E948B
:1005F000B90223E631E080916601811104C0C9018E
:100600000197F1F7F8CF8C2FCF910C94B902982F66
:10061000990F990F9BB995B1909594708295869595
:1006200086958370892B85B90895FC01019000207F
:10063000E9F73197AF01481B590BBC018AE791E0FC
:100640000C948A011F920F920FB60F9211242F93D0
:100650003F934F935F936F937F938F939F93AF934A
:10066000BF93EF93FF938AE791E00E940802FF9106
:10067000EF91BF91AF919F918F917F916F915F911A
:100680004F913F912F910F900FBE0F901F90189593
:100690001F920F920FB60F9211242F938F939F9357
:1006A000EF93FF93E0918A01F0918B018081E091BB
:1006B0009001F091910182FD1BC090818091930186
:1006C0008F5F8F7320919401821741F0E091930125
:1006D000F0E0E658FE4F958F80939301FF91EF91E4
:1006E0009F918F912F910F900FBE0F901F90189593
:1006F0008081F4CF1F920F920FB60F9211242F9387
:100700003F938F939F93AF93BF9380916801909194
:100710006901A0916A01B0916B013091670125E5F3
:10072000230F2D3728F028ED230F0196A11DB11DB1
:10073000209367018093680190936901A0936A01F7
:10074000B0936B0180916C0190916D01A0916E014D
:10075000B0916F010196A11DB11D80936C01909322
:100760006D01A0936E01B0936F01BF91AF919F9106
:100770008F913F912F910F900FBE0F901F90189562
:100780001F920F920FB60F921124CF92DF92EF9229
:10079000FF920F931F932F933F934F935F936F930A
:1007A0007F938F939F93AF93BF93EF93FF9380912A
:1007B00063018823F9F080916101909162010C97A7
:1007C000CCF434997FC0FF91EF91BF91AF919F918D
:1007D0008F917F916F915F914F913F912F911F91D9
:1007E0000F91FF90EF90DF90CF900F900FBE0F9082
:1007F0001F901895349BE7CF809160018B3018F7DC
:100800000E94970200915C0110915D0120915E01B0
:1008100030915F016B017C01C01AD10AE20AF30A30
:1008200097018601093C11052105310510F0109250
:10083000600160935C0170935D0180935E01909311
:100840005F0180915A0190915B01969587959093F5
:100850005B0180935A01359B05C0946090935B01C6
:1008600080935A01809160018F5F809360018B308B
:1008700009F0A9CF80915A0190915B0196958795D7
:100880008093750110926001809175018A3F09F48F
:1008900058C08E3F09F097CF80915801909159012F
:1008A00003970CF051C08091580190915901019625
:1008B000909359018093580181E0809377011092C1
:1008C000750181CF8091610190916201893091051C
:1008D0007CF481309105DCF4892B61F18091610118
:1008E00090916201019690936201809361016BCFB8
:1008F0008A30910519F1D4F00B9781F786B185FB09
:10090000882780F98093000110926301E7CF8091DE
:10091000650180FD09C045988091650190E095953D
:10092000879580936501DACF459AF6CF809164016F
:1009300080FD02C04598D2CF459AD0CF459A3D98C8
:10094000CDCF81E080936601109259011092580139
:10095000B6CFCF93DF93CDB7DEB728970FB6F89415
:10096000DEBF0FBECDBF789484B5826084BD84B5F0
:10097000816084BD85B5826085BD85B5816085BD9A
:1009800080916E00816080936E0010928100809152
:1009900081008260809381008091810081608093DA
:1009A0008100809180008160809380008091B100FF
:1009B00084608093B1008091B00081608093B0002A
:1009C00080917A00846080937A0080917A008260BE
:1009D00080937A0080917A00816080937A00809180
:1009E0007A00806880937A001092C10017B88FE077
:1009F00088B987E084B915B88CEF8AB91BB8F89428
:100A00008091680082608093680080916C008061B2
:100A100080936C007894E0918A01F0918B0182E0E0
:100A20008083E0918601F09187011082E091880136
:100A3000F09189018CE0808310929201E0918E0107
:100A4000F0918F018EE08083E0918C01F0918D0117
:100A5000808180618083E0918C01F0918D018081A3
:100A600088608083E0918C01F0918D0180818068A5
:100A70008083E0918C01F0918D0180818F7D808356
:100A800088E0E2E0F1E0DE01119601900D928A9596
:100A9000E1F78091C00082608093C00086B18370CE
:100AA00090E0880F991F21E030E02C0F3D1F820F4E
:100AB000931FFC01808191819093C5008093C400B5
:100AC0000E9497024B015C0138EEC32E33E0D32E17
:100AD000E12CF12C0E949702681979098A099B0977
:100AE000683E734081059105A8F3F1E0CF1AD10863
:100AF000E108F10828EE820E23E0921EA11CB11C31
:100B0000C114D104E104F10429F710927901109283
:100B1000780193EBE92E9BE0F92E0091780110917A
:100B200079010035110584F4C7010197F1F7F80147
:100B3000E859FF4F84910E9407030F5F1F4F1093E6
:100B4000790100937801E9CF03EB1BE0DD24D39416
:100B500080E0E82E80E0F82ECC24C3948AE791E070
:100B60000E94E801892B61F180910101882311F134
:100B70001092790110927801A0907801B0907901DB
:100B800084E0A816B1048CF4C8010197F1F7F501CF
:100B9000E754FD4F84910E940703EFEFAE1ABE0A9F
:100BA000B0927901A0927801E7CFC8010197F1F7DF
:100BB000109201018AE791E00E94C6010E9407039A
:100BC00080917701882351F0109277018CE191E0B8
:100BD0000E941503809176010E94B90280917501EF
:100BE000882309F46CC0E091750110927501E4311D
:100BF00009F477C008F044C0E13109F459C0E2318A
:100C000009F469C080917401811157C0EC3609F470
:100C100094C008F07BC0EA3509F498C008F06CC0B5
:100C200083E591E0ED3009F46EC08091720161E0DE
:100C300081110BC08091730162E0811106C0809127
:100C4000710163E0811101C060E0F0E86F9FB001C5
:100C50001124EF77E60FF72FF11DE754FF4F649152
:100C600080917001882309F47AC08FE9860F8A3158
:100C700008F06FC060528AE791E00E942A021FC00C
:100C8000E93549F1E03F99F1E83509F0BBCF8091B2
:100C900074018823A1F0809170018D2580937001EB
:100CA00080917001882331F184E00E94F20205C036
:100CB000809174018D258093730110927401E11469
:100CC000F10409F44BCF0E94F401882309F446CFC4
:100CD0000E94000043CF809174018D2580937201A2
:100CE000ECCF809174018D2580937101E6CFC09285
:100CF0007401E5CF80E0D9CFE93611F18BE391E0C3
:100D0000EB3609F092CF0E941503D9CFE53779F081
:100D100038F4E23779F087E391E0E437A1F385CF47
:100D2000EA3789F089E491E0ED3769F37ECF8FE20D
:100D300091E0E9CF83E391E0E6CF8FE391E0E3CF69
:100D400084E491E0E0CF8EE491E0DDCF86E591E0B0
:100D5000DACF8FEB860F8A3110F4605E8CCF66237A
:100D600009F4ADCF88CFEAE7F1E01382128288EE72
:100D700093E0A0E0B0E084839583A683B7838EE000
:100D800091E09183808385EC90E09587848784EC63
:100D900090E09787868780EC90E0918B808B81EC48
:100DA00090E0938B828B82EC90E0958B848B86EC29
:100DB00090E0978B868B118E128E138E148E089571
:100DC000EE0FFF1F0590F491E02D0994F894FFCFEA
:100DD000010137014D0033001900000000002A0214
:100DE0008A01B7017702E801C601DA012052657372
:100DF000656E64206C61737420636D642E20001B2B
:100E00005B41001B5B42001B5B43001B5B44001B00
:100E10005B317E001B5B347E001B5B357E001B5B01
:080E2000367E002020000D00C9
:107E0000112484B714BE81FFEFD095E090938100D8
:107E100082E08093C00088E18093C10086E0809377
:107E2000C2009093C4008EE0C9D0259A86E028E471
:107E30003AEF91E0309385002093840096BBB09B8D
:107E4000FECF1D9AA8958150A9F7CC24DD24882463
:107E50008394B5E0AB2EA1E19A2EF3E0BF2EA2D021
:107E6000813461F49FD0082FAFD0023811F001386F
:107E700011F484E001C083E08DD089C0823411F414
:107E800084E103C0853419F485E0A6D080C085352F
:107E900079F488D0E82EFF2485D0082F10E0102F29
:107EA00000270E291F29000F111F8ED068016FC0F7
:107EB000863521F484E090D080E0DECF843609F06E
:107EC00040C070D06FD0082F6DD080E0C81680E71A
:107ED000D80618F4F601B7BEE895C0E0D1E062D04C
:107EE00089930C17E1F7F0E0CF16F0E7DF0618F002
:107EF000F601B7BEE89568D007B600FCFDCFA60135
:107F0000A0E0B1E02C9130E011968C91119790E0B7
:107F1000982F8827822B932B1296FA010C0187BE8B
:107F2000E89511244E5F5F4FF1E0A038BF0751F78D
:107F3000F601A7BEE89507B600FCFDCF97BEE89511
:107F400026C08437B1F42ED02DD0F82E2BD03CD0C3
:107F5000F601EF2C8F010F5F1F4F84911BD0EA9425
:107F6000F801C1F70894C11CD11CFA94CF0CD11CA4
:107F70000EC0853739F428D08EE10CD085E90AD0BF
:107F80008FE07ACF813511F488E018D01DD080E1E0
:107F900001D065CF982F8091C00085FFFCCF9093D2
:107FA000C60008958091C00087FFFCCF8091C0007B
:107FB00084FD01C0A8958091C6000895E0E6F0E038
:107FC00098E1908380830895EDDF803219F088E096
:107FD000F5DFFFCF84E1DECF1F93182FE3DF1150D1
:107FE000E9F7F2DF1F91089580E0E8DFEE27FF2731
:027FF0000994F2
:027FFE00040479
:00000001FF
