:100000000C9480040C9492040C9492040C9492042A
:100010000C9492040C9492040C9492040C94920408
:100020000C9492040C9492040C9492040C949204F8
:100030000C9492040C9434060C9494040C94920442
:100040000C9492040C9492040C9492040C949204D8
:100050000C9492040C9492040C9492040C949204C8
:100060000C9492040C949204000000000000000024
:100070000000000000000000000000000000000080
:100080000000000000000000000000000000000070
:100090000000000000000000000000000000000060
:1000A0000000000000000000000000000000000050
:1000B0000000000000000000000000000000000040
:1000C0000000000000000000000000000000000030
:1000D0000000000000000000000000000000000020
:1000E0000000000000000000000000000000000010
:1000F0000000000000000000000000000000000000
:1001000000000000000000000000000000000000EF
:10011000000000000000000000000000000003C01C
:100120000018666618623C060C30000000000000F3
:100130003C183C3C067E3C7E3C3C00000E00703C83
:100140003C187C3C787E7E3C663C1E666063663C68
:100150007C3C7C3C7E66666366667E3C003C0000C0
:100160003C00000000000000000000000000000053
:1001700000000000000000000000000E18700000E9
:100180000000001818181818180000001818FFFFB1
:1001900001800FF0FF000FF0FF000FF0FF000FF0E5
:1001A000FFE79999E79DC3F9F3CFFFFFFFFFFFFF3B
:1001B000C3E7C3C3F981C381C3C3FFFFF1FF8FC38B
:1001C000C3E783C3878181C399C3E1999F9C99C386
:1001D00083C383C38199999C999981C3FFC3FFFF0E
:1001E000C3FFFFFFFFFFFFFFFFFFFFFFFFFFFFFF5B
:1001F000FFFFFFFFFFFFFFFFFFFFFFF1E78FFFFFA5
:1002000000000000000000000000000000000000EE
:10021000000000000000000000000000000007E0F7
:10022000001866663E66660C181866180000000323
:10023000661866660E6066666666000018001866D8
:10024000663C66666C60606666180C6C6077766605
:10025000666666661866666366660630600C180039
:100260006600600006000E0060180660380000009E
:10027000000000001800000000000018181800100E
:1002800000000018181818181800000018187FFE31
:1002900003C00FF0FF000FF0FF000FF0FF000FF0A2
:1002A000FFE79999C19999F3E7E799E7FFFFFFFC09
:1002B00099E79999F19F99999999FFFFE7FFE79934
:1002C00099C39999939F9F9999E7F3939F888999E7
:1002D00099999999E799999C9999F9CF9FF3E7FF93
:1002E00099FF9FFFF9FFF1FF9FE7F99FC7FFFFFF0E
:1002F000FFFFFFFFE7FFFFFFFFFFFFE7E7E7FFEF7E
:1003000000000000000000000000000000000000ED
:1003100000000000000000000000000000000E705F
:10032000001866FF600C3C18300C3C1800000006FA
:100330006E3806061E7C600C66661818307E0C0649
:100340006E6666606660606066180C78607F7E66C8
:1003500066666660186666633C660C30300C3C006E
:100360006E3C603C063C183E6000006018667C3CB9
:100370007C3E7C3E7E66666366667E18181800309A
:100380000000001818181818180000001C383FFC4E
:1003900007E00FF0FF000FF0FF000FF0FF000FF07D
:1003A000FFE799009FF3C3E7CFF3C3E7FFFFFFF930
:1003B00091C7F9F9E1839FF39999E7E7CF81F3F9C1
:1003C0009199999F999F9F9F99E7F3879F80819922
:1003D0009999999FE799999CC399F3CFCFF3C3FF5C
:1003E00091C39FC3F9C3E7C19FFFFF9FE79983C3F1
:1003F00083C183C18199999C999981E7E7E7FFCFF0
:1004000000000000000000000000000000000000EC
:1004100000000000000000000000000000001C3888
:10042000001800663C183800300CFF7E007E000C7F
:1004300076180C1C66067C183C3E00006000060C1A
:100440006E7E7C606678786E7E180C70606B7E665F
:100450007C667C3C1866666B183C1830180C66008D
:100460006E067C603E663E667C38066C187F66666B
:10047000666666601866666B3C660C70180E3B7F9D
:100480001FFFF81FFFF81FFFF8FF07E00FF01FF82E
:100490000FF00FF0FF000FF0FF000FF0FF000FF064
:1004A000FFE7FF99C3E7C7FFCFF30081FF81FFF3A9
:1004B00089E7F3E399F983E7C3C1FFFF9FFFF9F3EE
:1004C0009181839F9987879181E7F38F9F94819989
:1004D000839983C3E7999994E7C3E7CFE7F381FF53
:1004E00091F9839FC199C19983C7F993E78099993D
:1004F0009999999FE7999994C399F38FE7F1C480EB
:1005000000000000000000000000000000000000EB
:100510000000000000000000000000000000381C87
:10052000000000FF06306700300C3C180000001887
:10053000661830067F06661866060000307E0C18C6
:10054000606666606660606666180C7860636E66FA
:10055000606678061866667F3C1830300C0C000028
:10056000603E6660667E186666180678187F666666
:100570006666603C1866667F1866181818186E7FE5
:100580001FFFF81FFFF81FFFF8FF0FF007E00FF045
:100590001FF80000000F0F0F0FF0F0F0F0FFFFFF4B
:1005A000FFFFFF00F9CF98FFCFF3C3E7FFFFFFE79F
:1005B00099E7CFF980F999E799F9FFFFCF81F3E740
:1005C0009F99999F999F9F9999E7F3879F9C9199EC
:1005D0009F9987F9E7999980C3E7CFCFF3F3E7FFB6
:1005E0009FC1999F9981E79999E7F987E780999940
:1005F00099999FC3E7999980E799E7E7E7E79180A1
:1006000000000000000000000000000000000000EA
:100610000000000000000000000000000000700E5C
:10062000000000667C66660018186618180018300E
:100630006618606606666618666618181800180060
:10064000666666666C60606666186C6C606366669B
:10065000603C6C6618663C7766186030060C0000DB
:10066000666666606660183E6618066C186B66669D
:100670007C3E600618663C3E3C3E30181818003040
:10068000181818181818000000001C38000007E09F
:100690003FFC0000000F0F0F0FF0F0F0F0FFFFFF26
:1006A000FFFFFF99839999FFE7E799E7E7FFE7CF16
:1006B00099E79F99F99999E79999E7E7E7FFE7FFA4
:1006C00099999999939F9F9999E793939F9C999949
:1006D0009FC39399E799C38899E79FCFF9F3E7FF01
:1006E0009999999F999FE7C199E7F993E794999907
:1006F00083C19FF9E799C3C1C3C1CFE7E7E7FFCF44
:1007000000000000000000000000000000000000E9
:100710000000000000000000000000000000E007F2
:100720000018006618463F000C30000018001860E2
:100730003C7E7E3C063C3C183C3C00180E00701889
:100740003C667C3C787E603C663C38667E63663CFA
:10075000600E663C183C186366187E3C033C00FF44
:100760003C3E7C3C3E3C1806663C06663C63663C70
:100770006006607C0E3E1836660C7E0E1870001007
:10078000181818181818000000001818000003C0E6
:100790007FFE0000000F0F0F0FF0F0F0F0FFFFFFE3
:1007A000FFE7FF99E7B9C0FFF3CFFFFFE7FFE79F40
:1007B000C38181C3F9C3C3E7C3C3FFE7F1FF8FE779
:1007C000C39983C387819FC399C3C799819C99C3E8
:1007D0009FF199C3E7C3E79C99E781C3FCC3E70096
:1007E000C3C183C3C1C3E7F999C3F999C39C99C332
:1007F0009FF99F83F1C1E7C999F381F1E78FFFEF7B
:1008000000000000000000000000000000000000E8
:100810000000000000000000000000000000C00315
:100820000000000000000000000000003000000098
:100830000000000000000000000000300000000088
:1008400000000000000000000000000000000000A8
:10085000000000000000000000000000000000FF99
:10086000000000000000007C00003C0000000000D0
:100870006006000000000000007800001800000082
:100880001818181818180000000018180000018027
:10089000FFFF0000000F0F0F0FF0F0F0F0FFFFFF61
:1008A000FFFFFFFFFFFFFFFFFFFFFFFFCFFFFFFF88
:1008B000FFFFFFFFFFFFFFFFFFFFFFCFFFFFFFFF78
:1008C000FFFFFFFFFFFFFFFFFFFFFFFFFFFFFFFF38
:1008D000FFFFFFFFFFFFFFFFFFFFFFFFFFFFE7003F
:1008E000FFFFFFFFFFFFFF83FFFFC3FFFFFFFFFFD0
:1008F0009FF9FFFFFFFFFFFFFF87FFFFE7FFFFFFFE
:1009000011241FBECFEFD8E0DEBFCDBF29E0A0E0AD
:10091000B1E001C01D92A030B207E1F70E944F067E
:100920000C94CF090C9400001F920F920FB60F92F7
:1009300011242F932091B200243021F0233019F09C
:10094000223011F00000000000002C983F934F93DC
:100950005F936F937F938F939F93AF93BF93EF9327
:10096000FF931AB84091DD085091DE08CA01019644
:100970009093DE088093DD08559547954E512C9A4B
:1009800073B166B16F7389B1807C682B8FEF8AB9C0
:10099000542F56955695569580910001580F593110
:1009A00008F059519CE3959FF0011124A1E0B3E0B8
:1009B000BF0FAE0FB11D542F5770F1E0F50F25B1E9
:1009C000322F3073483C10F00C94150654E25A95BF
:1009D000F1F7ED9154915BB935B925B9ED91549189
:1009E0005BB935B925B9ED9154915BB935B925B9E4
:1009F000ED9154915BB935B925B9ED9154915BB93D
:100A000035B925B9ED9154915BB935B925B9ED9159
:100A100054915BB935B925B9ED9154915BB935B9AC
:100A200025B9ED9154915BB935B925B9ED91549142
:100A30005BB935B925B9ED9154915BB935B925B993
:100A4000ED9154915BB935B925B9ED9154915BB9EC
:100A500035B925B9ED9154915BB935B925B9ED9109
:100A600054915BB935B925B9ED9154915BB935B95C
:100A700025B9ED9154915BB935B925B9ED915491F2
:100A80005BB935B925B9ED9154915BB935B925B943
:100A9000ED9154915BB935B925B9ED9154915BB99C
:100AA00035B925B9ED9154915BB935B925B9ED91B9
:100AB00054915BB935B925B9ED9154915BB935B90C
:100AC00025B9ED9154915BB935B925B9ED915491A2
:100AD0005BB935B925B9ED9154915BB935B925B9F3
:100AE000ED9154915BB935B925B9ED9154915BB94C
:100AF00035B925B9ED9154915BB935B925B9ED9169
:100B000054915BB935B925B9ED9154915BB935B9BB
:100B100025B9ED9154915BB935B925B9ED91549151
:100B20005BB935B925B9ED9154915BB935B925B9A2
:100B3000ED9154915BB935B925B9ED9154915BB9FB
:100B400035B925B9ED9154915BB935B925B9ED9118
:100B500054915BB935B925B9ED9154915BB935B96B
:100B600025B9ED9154915BB935B925B9ED91549101
:100B70005BB935B925B9ED9154915BB935B925B952
:100B8000ED9154915BB935B925B9ED9154915BB9AB
:100B900035B925B9ED9154915BB935B925B9ED91C8
:100BA00054915BB935B925B9ED9154915BB935B91B
:100BB00025B9ED9154915BB935B925B9ED915491B1
:100BC0005BB935B925B9ED9154915BB935B925B902
:100BD000ED9154915BB935B925B9ED9154915BB95B
:100BE00035B925B9ED9154915BB935B925B9ED9178
:100BF00054915BB935B925B9ED9154915BB935B9CB
:100C000025B9ED9154915BB935B925B9ED91549160
:100C10005BB935B925B9ED9154915BB935B925B9B1
:100C2000ED9154915BB935B925B985B1782771FF3C
:100C30000AC072E2872785B9F2E0E0910003608381
:100C4000E395E0930003FF91EF91BF91AF919F91E6
:100C50008F917F916F915F914F913F912F910F9065
:100C60000FBE0F901F9018951F920F920FB60F9204
:100C700011248F939F931092DE081092DD088091CB
:100C8000E8089091E90801969093E9088093E808B4
:100C90009F918F910F900FBE0F901F901895F89411
:100CA00017B818B88FEF8AB91BB88CE384B988E1FC
:100CB00085B983E883BD84E486BD82E084BD85BDBB
:100CC0009FE597BD80936E0010928500109284007E
:100CD00083E3809380008DE18093810085E891E03B
:100CE000909389008093880010928B0010928A0064
:100CF00081E080936F001092B20083E08093B00097
:100D000089E08093B10087E08093B3001092700077
:100D100013BC78941092C1004CED55E060E270E095
:100D200081E093E00E94C8091CE37EE1E72EF12CEC
:100D300000E2EBE3DE2ED8E12091E7088091E6089F
:100D4000082E000C990B422F022E000C550B189FF9
:100D5000F001199FF00D1124EF5FFC4FE40FF51F18
:100D60006091E8087091E9086F7377276032710528
:100D700029F42C331CF43081306830836091E8080A
:100D80007091E9086F737727672B29F42C331CF4D3
:100D900030813F7730836091E5083091000363171D
:100DA000F9F22C3364F4189FF001199FF00D11240F
:100DB000EF5FFC4FE40FF51F80818F778083CC2499
:100DC000C39462E0B62EE091E50881E08E0F809337
:100DD000E508F0E0E050FE4FC081F092E908E092B3
:100DE000E808E091E408E53070F01092E408CB31B7
:100DF00009F02AC2C092E4089091E50880910003AE
:100E00009813E1CF99CFCB31A9F3EE2309F41CC29B
:100E1000E13029F4CB35B1F4B092E408EDCF91E0A4
:100E20009E0F9093E408F0E0E152F74FC083C7347F
:100E300009F434C148F5C13409F4BCC030F4C053DE
:100E4000CA30D0F21092E408D7CFC33409F4FEC000
:100E500008F4D4C0C434B1F7953009F014C19091AE
:100E6000E10890538091E20880532AE0929F800D20
:100E700011249091E70820E0821709F40CC119169B
:100E80000CF491502F5FF8CFCB3409F4B2C108F0C5
:100E900044C0C83409F469C1CA34A1F6943081F45D
:100EA0009091E1089053943058F4923009F48EC137
:100EB000C091E608933009F492C1913009F45CC105
:100EC0008091E708C091E608082E000C990B4CE3CE
:100ED00050E0481B590BC102800D911D112460E2A6
:100EE00070E08F5F9C4F0E94C809CF5FC93108F046
:100EF000C0E0C19FC00111244CE350E060E270E00B
:100F00008F5F9C4F0E94C80980910001082E000C41
:100F1000990BC817190649F795CFC43549F1C4365E
:100F200009F4E8C0C33509F08DCF8091000181023A
:100F3000C00111244CE350E060E270E08F5F9C4FF1
:100F40000E94C809809100018F5F80930001809109
:100F50000001893114F0109200018091E6088F5F42
:100F600089311CF48093E60847CF1092E60844CFFD
:100F7000809100018150809300018091000187FDE4
:100F8000D09300018091E608815087FD10C08093C6
:100F9000E608809100018102C00111244CE350E079
:100FA00060E270E08F5F9C4F0E94C80925CFD0930C
:100FB000E608EFCF9530C1F49091E108905380910D
:100FC000E20880532AE0929F800D11249091E60858
:100FD00020E0821781F030910001391719F091500B
:100FE00097FD98E12F5FF5CF8091E1088053943011
:100FF00069F381E0EBCF9093E60824CF9530E1F4DC
:101000009091E10890538091E2088053EAE09E9F1E
:10101000800D11242091E60830E08317A1F091E0C3
:10102000920F99310CF090E040910001491301C0FA
:10103000922F3F5F292FF1CF8091E10880539430A8
:1010400049F381E0E7CF2093E608FCCE9530A1F488
:101050009091E10890538091E2088053FAE09F9FBD
:10106000800D11249091E70820E08217A1F09B33B6
:101070000CF49F5F2F5FF9CF8091E108805394308B
:1010800089F381E0EFCF8091E1088053943009F437
:10109000F0CE81E0EECE9093E708D4CE9530E9F41F
:1010A0008091E1088053880F90E09C01220F331F4C
:1010B000220F331F280F391F8091E208820F932FD0
:1010C000911D8D369105A4F48133910514F481E3CB
:1010D00090E081538093E708B5CE943009F049C081
:1010E0008091E1088D3620F4813398F780E0F2CFCB
:1010F0008BE3F0CF953021F58091E1088053880F84
:1011000090E09C01220F331F220F331F280F391F3D
:101110008091E208820F932F911D8A34910574F417
:101120008133910514F481E390E0815390910001A3
:10113000890F8931ACF48093E60884CE88E1F6CF3C
:10114000943081F49091E1089A3430F4913330F086
:10115000915380910001ECCF98E1FBCF90E0F9CF63
:101160008951E9CF80910001E6CF80910001809301
:10117000E6081092E70866CE8091E708082E000C7A
:10118000990B4CE350E0481B590BC102800D911D97
:10119000112460E270E08F5F9C4F0E94C80980912B
:1011A0000001082E000C990BC817190609F00CF461
:1011B00049CEC19FC00111244CE350E060E270E0D1
:1011C0008F5F9C4F0E94C809C150E9CF4CED55E09C
:1011D00060E270E081E093E00E94C80933CEC10272
:1011E000C00111244CE350E060E270E08F5F9C4F3F
:1011F000F3CFE091E608E102F0011124943049F4C4
:101200008091E1088053833020F4813079F082307E
:10121000C1F02091E708022E000C330B4CE350E0A4
:10122000421B530BC9018E0F9F1FDECF4091E70871
:10123000042E000C550B4F5F5F4F60E270E0CF0152
:10124000D5CF4CE350E0F9CFCA30E1F0CD30B9F062
:10125000C83009F05AC08091E7082091E6081816B6
:10126000DCF53FEF380F3093E7082103C00111246C
:101270008F5F9C4F830F911DFC010083BDCD1092A9
:10128000E708BACD1092E7088091E60888310CF59E
:101290008F5F8093E6088091E608909100018913A2
:1012A000ABCD8102C00111244CE350E060E270E05C
:1012B0008F5F9C4F0E94C809809100018F5F8093CF
:1012C00000018091000189310CF496CD109200014B
:1012D00093CD1092E608DFCF80910001821709F4C8
:1012E0008BCD12167CF48FEF820F8093E60820914D
:1012F000E6082103F0011124EF5FFC4F03AFD09209
:10130000E7087ACDD093E608F2CFC03208F474CD66
:101310008091E7088C3334F18091E6081092E70859
:1013200088319CF58F5F8093E608A090E608FA2D3F
:10133000F102C00111244CE350E060E270E08F5FE5
:101340009C4F0E94C80980910001A8120BC0809197
:1013500000018F5F8093000180910001893114F0BA
:10136000109200012091E6088091E70891E0980F23
:101370009093E7082103F0011124EF5FFC4FE80F81
:10138000F11D87FDFA95C08337CD1092E608CDCFC9
:10139000DC0101C06D9341505040E0F70895F8948E
:0213A000FFCF7D
:040000050080010076
:00000001FF
