:020000040000FA
:100000000C9480040C9492040C9492040C9492042A
:100010000C9492040C9492040C9492040C94920408
:100020000C9492040C9492040C9492040C949204F8
:100030000C9492040C9434060C9494040C94920442
:100040000C9492040C9492040C9492040C949204D8
:100050000C9492040C9492040C9492040C949204C8
:100060000C9492040C949204000000000000000024
:100070000000000000000000000000000000000080
:100080000000000000000000000000000000000070
:100090000000000000000000000000000000000060
:1000A0000000000000000000000000000000000050
:1000B0000000000000000000000000000000000040
:1000C0000000000000000000000000000000000030
:1000D0000000000000000000000000000000000020
:1000E0000000000000000000000000000000000010
:1000F0000000000000000000000000000000000000
:1001000000000000000000000000000000000000EF
:10011000000000000000000000000000000003C01C
:100120000018666618623C060C30000000000000F3
:100130003C183C3C067E3C7E3C3C00000E00703C83
:100140003C187C3C787E7E3C663C1E666063663C68
:100150007C3C7C3C7E66666366667E3C003C0000C0
:10016000600000000000000000000000000000002F
:1001700000000000000000000000000E18700000E9
:100180000000001818181818180000001818FFFFB1
:1001900001800FF0FF000FF0FF000FF0FF000FF0E5
:1001A000FFE79999E79DC3F9F3CFFFFFFFFFFFFF3B
:1001B000C3E7C3C3F981C381C3C3FFFFF1FF8FC38B
:1001C000C3E783C3878181C399C3E1999F9C99C386
:1001D00083C383C38199999C999981C3FFC3FFFF0E
:1001E0009FFFFFFFFFFFFFFFFFFFFFFFFFFFFFFF7F
:1001F000FFFFFFFFFFFFFFFFFFFFFFF1E78FFFFFA5
:1002000000000000000000000000000000000000EE
:10021000000000000000000000000000000007E0F7
:10022000001866663E66660C181866180000000323
:10023000661866660E6066666666000018001866D8
:10024000663C66666C60606666180C6C6077766605
:10025000666666661866666366660630600C180039
:100260003000600006000E006018066038000000D4
:10027000000000001800000000000018181800100E
:1002800000000018181818181800000018187FFE31
:1002900003C00FF0FF000FF0FF000FF0FF000FF0A2
:1002A000FFE79999C19999F3E7E799E7FFFFFFFC09
:1002B00099E79999F19F99999999FFFFE7FFE79934
:1002C00099C39999939F9F9999E7F3939F888999E7
:1002D00099999999E799999C9999F9CF9FF3E7FF93
:1002E000CFFF9FFFF9FFF1FF9FE7F99FC7FFFFFFD8
:1002F000FFFFFFFFE7FFFFFFFFFFFFE7E7E7FFEF7E
:1003000000000000000000000000000000000000ED
:1003100000000000000000000000000000000E705F
:10032000001866FF600C3C18300C3C1800000006FA
:100330006E3806061E7C600C66661818307E0C0649
:100340006E6666606660606066180C78607F7E66C8
:1003500066666660186666633C660C30300C3C006E
:10036000183C603C063C183E6000006018667C3C0F
:100370007C3E7C3E7E66666366667E18181800309A
:100380000000001818181818180000001C383FFC4E
:1003900007E00FF0FF000FF0FF000FF0FF000FF07D
:1003A000FFE799009FF3C3E7CFF3C3E7FFFFFFF930
:1003B00091C7F9F9E1839FF39999E7E7CF81F3F9C1
:1003C0009199999F999F9F9F99E7F3879F80819922
:1003D0009999999FE799999CC399F3CFCFF3C3FF5C
:1003E000E7C39FC3F9C3E7C19FFFFF9FE79983C39B
:1003F00083C183C18199999C999981E7E7E7FFCFF0
:1004000000000000000000000000000000000000EC
:1004100000000000000000000000000000001C3888
:10042000001800663C183800300CFF7E007E000C7F
:1004300076180C1C66067C183C3E00006000060C1A
:100440006E7E7C606678786E7E180C70606B7E665F
:100450007C667C3C1866666B183C1830180C66008D
:1004600000067C603E663E667C38066C187F6666D9
:10047000666666601866666B3C660C70180E3B7F9D
:100480001FFFF81FFFF81FFFF8FF07E00FF01FF82E
:100490000FF00FF0FF000FF0FF000FF0FF000FF064
:1004A000FFE7FF99C3E7C7FFCFF30081FF81FFF3A9
:1004B00089E7F3E399F983E7C3C1FFFF9FFFF9F3EE
:1004C0009181839F9987879181E7F38F9F94819989
:1004D000839983C3E7999994E7C3E7CFE7F399FF3B
:1004E000FFF9839FC199C19983C7F993E7809999CF
:1004F0009999999FE7999994C399F38FE7F1C480EB
:1005000000000000000000000000000000000000EB
:100510000000000000000000000000000000381C87
:10052000000000FF06306700300C3C180000001887
:10053000661830067F06661866060000307E0C18C6
:10054000606666606660606666180C7860636E66FA
:10055000606678061866667F3C1830300C0C000028
:10056000003E6660667E186666180678187F6666C6
:100570006666603C1866667F1866181818186E7FE5
:100580001FFFF81FFFF81FFFF8FF0FF007E00FF045
:100590001FF80000000F0F0F0FF0F0F0F0FFFFFF4B
:1005A000FFFFFF00F9CF98FFCFF3C3E7FFFFFFE79F
:1005B00099E7CFF980F999E799F9FFFFCF81F3E740
:1005C0009F99999F999F9F9999E7F3879F9C9199EC
:1005D0009F9987F9E7999980C3E7CFCFF3F3FFFF9E
:1005E000FFC1999F9981E79999E7F987E7809999E0
:1005F00099999FC3E7999980E799E7E7E7E79180A1
:1006000000000000000000000000000000000000EA
:100610000000000000000000000000000000700E5C
:10062000000000667C66660018186618180018300E
:100630006618606606666618666618181800180060
:10064000666666666C60606666186C6C606366669B
:10065000603C6C6618663C7766186030060C0000DB
:10066000006666606660183E6618066C186B666603
:100670007C3E600618663C3E3C3E30181818003040
:10068000181818181818000000001C38000007E09F
:100690003FFC0000000F0F0F0FF0F0F0F0FFFFFF26
:1006A000FFFFFF99839999FFE7E799E7E7FFE7CF16
:1006B00099E79F99F99999E79999E7E7E7FFE7FFA4
:1006C00099999999939F9F9999E793939F9C999949
:1006D0009FC39399E799C38899E79FCFF9F3FFFFE9
:1006E000FF99999F999FE7C199E7F993E7949999A1
:1006F00083C19FF9E799C3C1C3C1CFE7E7E7FFCF44
:1007000000000000000000000000000000000000E9
:100710000000000000000000000000000000E007F2
:100720000018006618463F000C30000018001860E2
:100730003C7E7E3C063C3C183C3C00180E00701889
:100740003C667C3C787E603C663C38667E63663CFA
:10075000600E663C183C186366187E3C033C000043
:10076000003E7C3C3E3C1806663C06663C63663CAC
:100770006006607C0E3E1836660C7E0E1870001007
:10078000181818181818000000001818000003C0E6
:100790007FFE0000000F0F0F0FF0F0F0F0FFFFFFE3
:1007A000FFE7FF99E7B9C0FFF3CFFFFFE7FFE79F40
:1007B000C38181C3F9C3C3E7C3C3FFE7F1FF8FE779
:1007C000C39983C387819FC399C3C799819C99C3E8
:1007D0009FF199C3E7C3E79C99E781C3FCC3FFFF7F
:1007E000FFC183C3C1C3E7F999C3F999C39C99C3F6
:1007F0009FF99F83F1C1E7C999F381F1E78FFFEF7B
:1008000000000000000000000000000000000000E8
:100810000000000000000000000000000000C00315
:100820000000000000000000000000003000000098
:100830000000000000000000000000300000000088
:1008400000000000000000000000000000000000A8
:10085000000000000000000000000000000000FF99
:10086000000000000000007C00003C0000000000D0
:100870006006000000000000007800001800000082
:100880001818181818180000000018180000018027
:10089000FFFF0000000F0F0F0FF0F0F0F0FFFFFF61
:1008A000FFFFFFFFFFFFFFFFFFFFFFFFCFFFFFFF88
:1008B000FFFFFFFFFFFFFFFFFFFFFFCFFFFFFFFF78
:1008C000FFFFFFFFFFFFFFFFFFFFFFFFFFFFFFFF38
:1008D000FFFFFFFFFFFFFFFFFFFFFFFFFFFFFF0027
:1008E000FFFFFFFFFFFFFF83FFFFC3FFFFFFFFFFD0
:1008F0009FF9FFFFFFFFFFFFFF87FFFFE7FFFFFFFE
:1009000011241FBECFEFD8E0DEBFCDBF29E0A0E0AD
:10091000B1E001C01D92A030B207E1F70E944F067E
:100920000C94110A0C9400001F920F920FB60F92B4
:1009300011242F932091B200243021F0233019F09C
:10094000223011F00000000000002C983F934F93DC
:100950005F936F937F938F939F93AF93BF93EF9327
:10096000FF931AB84091DD085091DE08CA01019644
:100970009093DE088093DD08559547954E512C9A4B
:1009800073B166B16F7389B1807C682B8FEF8AB9C0
:10099000542F56955695569580910001580F593110
:1009A00008F059519CE3959FF0011124A1E0B3E0B8
:1009B000BF0FAE0FB11D542F5770F1E0F50F25B1E9
:1009C000322F3073483C10F00C94150654E25A95BF
:1009D000F1F7ED9154915BB935B925B9ED91549189
:1009E0005BB935B925B9ED9154915BB935B925B9E4
:1009F000ED9154915BB935B925B9ED9154915BB93D
:100A000035B925B9ED9154915BB935B925B9ED9159
:100A100054915BB935B925B9ED9154915BB935B9AC
:100A200025B9ED9154915BB935B925B9ED91549142
:100A30005BB935B925B9ED9154915BB935B925B993
:100A4000ED9154915BB935B925B9ED9154915BB9EC
:100A500035B925B9ED9154915BB935B925B9ED9109
:100A600054915BB935B925B9ED9154915BB935B95C
:100A700025B9ED9154915BB935B925B9ED915491F2
:100A80005BB935B925B9ED9154915BB935B925B943
:100A9000ED9154915BB935B925B9ED9154915BB99C
:100AA00035B925B9ED9154915BB935B925B9ED91B9
:100AB00054915BB935B925B9ED9154915BB935B90C
:100AC00025B9ED9154915BB935B925B9ED915491A2
:100AD0005BB935B925B9ED9154915BB935B925B9F3
:100AE000ED9154915BB935B925B9ED9154915BB94C
:100AF00035B925B9ED9154915BB935B925B9ED9169
:100B000054915BB935B925B9ED9154915BB935B9BB
:100B100025B9ED9154915BB935B925B9ED91549151
:100B20005BB935B925B9ED9154915BB935B925B9A2
:100B3000ED9154915BB935B925B9ED9154915BB9FB
:100B400035B925B9ED9154915BB935B925B9ED9118
:100B500054915BB935B925B9ED9154915BB935B96B
:100B600025B9ED9154915BB935B925B9ED91549101
:100B70005BB935B925B9ED9154915BB935B925B952
:100B8000ED9154915BB935B925B9ED9154915BB9AB
:100B900035B925B9ED9154915BB935B925B9ED91C8
:100BA00054915BB935B925B9ED9154915BB935B91B
:100BB00025B9ED9154915BB935B925B9ED915491B1
:100BC0005BB935B925B9ED9154915BB935B925B902
:100BD000ED9154915BB935B925B9ED9154915BB95B
:100BE00035B925B9ED9154915BB935B925B9ED9178
:100BF00054915BB935B925B9ED9154915BB935B9CB
:100C000025B9ED9154915BB935B925B9ED91549160
:100C10005BB935B925B9ED9154915BB935B925B9B1
:100C2000ED9154915BB935B925B985B1782771FF3C
:100C30000AC072E2872785B9F2E0E0910003608381
:100C4000E395E0930003FF91EF91BF91AF919F91E6
:100C50008F917F916F915F914F913F912F910F9065
:100C60000FBE0F901F9018951F920F920FB60F9204
:100C700011248F939F931092DE081092DD088091CB
:100C8000EB089091EC0801969093EC088093EB08A8
:100C90009F918F910F900FBE0F901F901895F89411
:100CA00017B818B88FEF8AB91BB88CE384B988E1FC
:100CB00085B983E883BD84E486BD82E084BD85BDBB
:100CC0009FE597BD80936E0010928500109284007E
:100CD00083E3809380008DE18093810085E891E03B
:100CE000909389008093880010928B0010928A0064
:100CF00081E080936F001092B20083E08093B00097
:100D000089E08093B10087E08093B3001092700077
:100D100013BC78941092C1004CED55E060E270E095
:100D200081E093E00E940A0A1CE33EE1C32ED12C2D
:100D300040E2942E50EEA52E58E0B52E5524539443
:100D40002091E908022E000C330B9091E808492FFE
:100D5000092E000C550B8091EA08129FD001139FB9
:100D6000B00D1124AF5FBC4FA40FB51F6091EB080D
:100D70007091EC086F7377276032710549F4811127
:100D800007C08C9187FD57C08C9180688C9381E05F
:100D90006091EB087091EC086F737727672B59F41B
:100DA0009C334CF4882339F08C9187FF47C08C9199
:100DB0008F778C9380E07091E7086091000376173D
:100DC000A9F29C3314F481113CC08093EA088BE3B0
:100DD000882E08E19AE0792E22E0622EE091E70861
:100DE00081E08E0F8093E708F0E0E050FE4F8081B5
:100DF000D092EC08C092EB089091E6089C3010F07D
:100E00001092E608E091E508E53080F11092E608DE
:100E10008B3109F079C25092E6081092E50885E01E
:100E2000F50111928A95E9F79091E7088091000306
:100E30009813D4CF85CF8C918F77A8CF8C91806871
:100E4000B8CF1092EA08129FF001139FF00D112401
:100E5000EF5FFC4FE40FF51F808187FF04C08081A6
:100E60008F778083B4CF80818068FBCF8B3199F2FC
:100E70009091E608992309F447C2923028F48B3503
:100E8000C1F46092E608D0CF803271F29F5F9093F8
:100E9000E608863409F40CC190F5813409F49EC04B
:100EA00058F4803330F08A3308F48AC08B3309F465
:100EB00091C01092E608B8CF833409F4BFC008F49B
:100EC000A4C0843409F4CDC0853499F71092E808A1
:100ED000F0E0E052F74F3081311101C031E09091E4
:100EE000E90820E081E0890F89310CF080E0409131
:100EF00000014813982F2F5F3213F4CF9CC0833525
:100F000009F4D1C1B8F4883409F4F3C008F4E7C097
:100F10008A3409F415C18B3461F6F0E0E052F74FE2
:100F20008081813009F4AAC108F498C1823009F4A3
:100F300015C1BFCF843609F4A5C068F5843509F022
:100F4000B8CFF0E0E052F74FD081D11101C0D1E02D
:100F5000C0E08091000181508093000180910001E8
:100F600087FD009300018091E908815087FDC9C188
:100F70008093E908809100018102C00111244CE3B3
:100F800050E060E270E08F5F9C4F0E940A0ACF5FE2
:100F9000DC13DFCF8ECF863609F4ABC08D3609F077
:100FA00088CF8091DF08A0EEB8E090E02D91273047
:100FB00009F471C12B3111F021116EC180E06CC1B7
:100FC000F0E0E052F74F90818053979D800D1124FF
:100FD00080832ACFEF5FE093E50826CFF0E0E05270
:100FE000F74F2081211101C021E08091E90890E0B4
:100FF00030910001381719F0815087FD88E19F5F1B
:101000002913F6CF8093E90854CFF0E0E052F74F70
:101010003081311101C031E09091E90820E081E098
:10102000890F89310CF080E0409100014813982F1E
:101030002F5F3213F4CF9093E9083BCFF0E0E052FA
:10104000F74F2081211101C021E08091E80890E054
:101050008B330CF48F5F9F5F2913FACF8093E808DE
:1010600028CFF0E0E052F74F2081211101C021E0AC
:101070008091E80890E018160CF481509F5F2913C6
:10108000FACFECCFF0E0E052F74F9081992369F06E
:101090009A3148F4915080910001890F89310CF404
:1010A000B1CF8951AFCF98E1F6CF80910001AACF9F
:1010B0001092E808F0E0E052F74F2081211101C0C2
:1010C00021E08091E90890E030910001381719F093
:1010D000815087FD88E19F5F2913F6CF93CFF0E021
:1010E000E052F74F8081882341F18D3300F5815024
:1010F000B5CFE130F1F49091E0089A3190F4992362
:1011000091F0915080910001890F893174F480939E
:10111000E9088091E1088D3350F48111E8CF80E037
:101120009DCF98E1EFCF90E0EDCF8951F0CF8BE3E9
:1011300095CF809100018093E9081092E808B9CE1C
:10114000F0E0E052F74F8081813009F44FC090F019
:10115000823009F47AC0833009F0ABCE8091E9087F
:101160008102C00111244CE350E060E270E08F5F27
:101170009C4F71C02091E9088091E8084424439471
:10118000420E082E000C990B4CE350E0481B590B03
:10119000219F800D911D112460E270E08F5F9C4FB4
:1011A0000E940A0AD0E0C0E0E42CF12C97012C0F39
:1011B0003D1F80910001082E000C990B82179307A8
:1011C00009F477CEF8E1F41508F473CE4394129F36
:1011D000C001139F900D11244CE350E060E270E0D9
:1011E0008F5F9C4F0E940A0A2196E0CF4090E90849
:1011F0004091E808042E000C550B4F5F5F4F419E55
:10120000C001112460E270E08F5F9C4F0E940A0AC7
:10121000442009F44ECED0E0C0E0EE24EA94E40C81
:10122000F12C97012C1B3D0B129FC001139F900DB9
:1012300011244CE350E060E270E08F5F9C4F0E940D
:101240000A0A21964C12EDCF34CE4CED55E060E207
:1012500070E081E093E00E940A0A2BCE8091E808BA
:10126000082E000C990B4CE350E0481B590B2091C1
:10127000E9082102800D911D112477CF4091E808E3
:10128000042E000C550B4F5F5F4F8091E9088102DF
:10129000C00111246ACF81E09F5FE91708F086CE74
:1012A0008093DF0806CEF0E0E052F74FD081D111F5
:1012B00001C0D1E0C0E0809100018102C001112491
:1012C0004CE350E060E270E08F5F9C4F0E940A0A9E
:1012D000809100018F5F809300018091000189312E
:1012E00014F0109200018091E9088F5F893134F485
:1012F0008093E908CF5FDC13DECFDBCD1092E908E5
:10130000F9CF0093E90836CE8A30E1F08D30B9F09C
:10131000883009F058C08091E8082091E908181633
:10132000CCF53FEF380F3093E8082103C0011124BA
:101330008F5F9C4F830F911DFC01908275CD1092A1
:10134000E80872CD1092E8088091E90888310CF025
:101350005EC08F5F8093E9088091E9089091000159
:10136000891362CD8102C00111244CE350E060E298
:1013700070E08F5F9C4F0E940A0A809100018F5F8E
:10138000809300018091000189310CF44DCD1092C1
:1013900000014ACD80910001821709F445CD121653
:1013A0007CF48FEF820F8093E9082091E9082103F4
:1013B000F0011124EF5FFC4F93AE8092E80834CD2A
:1013C0000093E908F2CF803208F42ECD9091DF0827
:1013D000911180682091E9083091E80891E0930F1D
:1013E0009093E8082103F0011124EF5FFC4FE30F15
:1013F000F11D37FDFA9580839C330CF415CD1092C6
:10140000E808283124F42F5F2093E908A5CF109233
:10141000E908A2CFDC0101C06D9341505040E0F7D4
:061420000895F894FFCFCF
:107E0000112484B714BE81FFEFD095E090938100D8
:107E100082E08093C00088E18093C10086E0809377
:107E2000C2009093C4008EE0C9D0259A86E028E471
:107E30003AEF91E0309385002093840096BBB09B8D
:107E4000FECF1D9AA8958150A9F7CC24DD24882463
:107E50008394B5E0AB2EA1E19A2EF3E0BF2EA2D021
:107E6000813461F49FD0082FAFD0023811F001386F
:107E700011F484E001C083E08DD089C0823411F414
:107E800084E103C0853419F485E0A6D080C085352F
:107E900079F488D0E82EFF2485D0082F10E0102F29
:107EA00000270E291F29000F111F8ED068016FC0F7
:107EB000863521F484E090D080E0DECF843609F06E
:107EC00040C070D06FD0082F6DD080E0C81680E71A
:107ED000D80618F4F601B7BEE895C0E0D1E062D04C
:107EE00089930C17E1F7F0E0CF16F0E7DF0618F002
:107EF000F601B7BEE89568D007B600FCFDCFA60135
:107F0000A0E0B1E02C9130E011968C91119790E0B7
:107F1000982F8827822B932B1296FA010C0187BE8B
:107F2000E89511244E5F5F4FF1E0A038BF0751F78D
:107F3000F601A7BEE89507B600FCFDCF97BEE89511
:107F400026C08437B1F42ED02DD0F82E2BD03CD0C3
:107F5000F601EF2C8F010F5F1F4F84911BD0EA9425
:107F6000F801C1F70894C11CD11CFA94CF0CD11CA4
:107F70000EC0853739F428D08EE10CD085E90AD0BF
:107F80008FE07ACF813511F488E018D01DD080E1E0
:107F900001D065CF982F8091C00085FFFCCF9093D2
:107FA000C60008958091C00087FFFCCF8091C0007B
:107FB00084FD01C0A8958091C6000895E0E6F0E038
:107FC00098E1908380830895EDDF803219F088E096
:107FD000F5DFFFCF84E1DECF1F93182FE3DF1150D1
:107FE000E9F7F2DF1F91089580E0E8DFEE27FF2731
:027FF0000994F2
:027FFE00040479
:00000001FF
